{
  "_format": "hh-sol-artifact-1",
  "contractName": "CrowdFunding",
  "sourceName": "contracts/CrowdFunding.sol",
  "abi": [
    {
      "inputs": [
        {
          "internalType": "uint256",
          "name": "",
          "type": "uint256"
        }
      ],
      "name": "campaigns",
      "outputs": [
        {
          "internalType": "address",
          "name": "owner",
          "type": "address"
        },
        {
          "internalType": "string",
          "name": "title",
          "type": "string"
        },
        {
          "internalType": "string",
          "name": "image",
          "type": "string"
        },
        {
          "internalType": "string",
          "name": "description",
          "type": "string"
        },
        {
          "internalType": "uint256",
          "name": "target",
          "type": "uint256"
        },
        {
          "internalType": "uint256",
          "name": "deadline",
          "type": "uint256"
        },
        {
          "internalType": "uint256",
          "name": "amountCollected",
          "type": "uint256"
        }
      ],
      "stateMutability": "view",
      "type": "function"
    },
    {
      "inputs": [
        {
          "internalType": "address",
          "name": "_owner",
          "type": "address"
        },
        {
          "internalType": "string",
          "name": "_title",
          "type": "string"
        },
        {
          "internalType": "string",
          "name": "_description",
          "type": "string"
        },
        {
          "internalType": "uint256",
          "name": "_target",
          "type": "uint256"
        },
        {
          "internalType": "uint256",
          "name": "_deadline",
          "type": "uint256"
        },
        {
          "internalType": "string",
          "name": "_image",
          "type": "string"
        }
      ],
      "name": "createCampaign",
      "outputs": [
        {
          "internalType": "uint256",
          "name": "",
          "type": "uint256"
        }
      ],
      "stateMutability": "nonpayable",
      "type": "function"
    },
    {
      "inputs": [
        {
          "internalType": "uint256",
          "name": "_id",
          "type": "uint256"
        }
      ],
      "name": "donateToCampaign",
      "outputs": [],
      "stateMutability": "payable",
      "type": "function"
    },
    {
      "inputs": [],
      "name": "getCampaigns",
      "outputs": [
        {
          "components": [
            {
              "internalType": "address",
              "name": "owner",
              "type": "address"
            },
            {
              "internalType": "string",
              "name": "title",
              "type": "string"
            },
            {
              "internalType": "string",
              "name": "image",
              "type": "string"
            },
            {
              "internalType": "string",
              "name": "description",
              "type": "string"
            },
            {
              "internalType": "uint256",
              "name": "target",
              "type": "uint256"
            },
            {
              "internalType": "uint256",
              "name": "deadline",
              "type": "uint256"
            },
            {
              "internalType": "uint256",
              "name": "amountCollected",
              "type": "uint256"
            },
            {
              "internalType": "address[]",
              "name": "donators",
              "type": "address[]"
            },
            {
              "internalType": "uint256[]",
              "name": "donations",
              "type": "uint256[]"
            }
          ],
          "internalType": "struct CrowdFunding.Campaign[]",
          "name": "",
          "type": "tuple[]"
        }
      ],
      "stateMutability": "view",
      "type": "function"
    },
    {
      "inputs": [
        {
          "internalType": "uint256",
          "name": "_id",
          "type": "uint256"
        }
      ],
      "name": "getDonators",
      "outputs": [
        {
          "internalType": "address[]",
          "name": "",
          "type": "address[]"
        },
        {
          "internalType": "uint256[]",
          "name": "",
          "type": "uint256[]"
        }
      ],
      "stateMutability": "view",
      "type": "function"
    },
    {
      "inputs": [],
      "name": "numberOfCampaigns",
      "outputs": [
        {
          "internalType": "uint256",
          "name": "",
          "type": "uint256"
        }
      ],
      "stateMutability": "view",
      "type": "function"
    }
  ],
  "bytecode": "0x6080604052600060015534801561001557600080fd5b50610f4c806100256000396000f3fe6080604052600436106100555760003560e01c806307ca140d1461005a5780630fa91fa914610083578063141961bc146100b157806342a4fda8146100e45780639943e3a1146100f9578063a6b0363314610119575b600080fd5b34801561006657600080fd5b5061007060015481565b6040519081526020015b60405180910390f35b34801561008f57600080fd5b506100a361009e366004610937565b61013b565b60405161007a929190610950565b3480156100bd57600080fd5b506100d16100cc366004610937565b61020a565b60405161007a9796959493929190610a1a565b6100f76100f2366004610937565b6103e7565b005b34801561010557600080fd5b50610070610114366004610b27565b610487565b34801561012557600080fd5b5061012e61058a565b60405161007a9190610c54565b600081815260208181526040918290206007810180548451818502810185019095528085526060948594929360080192909184918301828280156101a857602002820191906000526020600020905b81546001600160a01b0316815260019091019060200180831161018a575b50505050509150808054806020026020016040519081016040528092919081815260200182805480156101fa57602002820191906000526020600020905b8154815260200190600101908083116101e6575b5050505050905091509150915091565b600060208190529081526040902080546001820180546001600160a01b03909216929161023690610d62565b80601f016020809104026020016040519081016040528092919081815260200182805461026290610d62565b80156102af5780601f10610284576101008083540402835291602001916102af565b820191906000526020600020905b81548152906001019060200180831161029257829003601f168201915b5050505050908060020180546102c490610d62565b80601f01602080910402602001604051908101604052809291908181526020018280546102f090610d62565b801561033d5780601f106103125761010080835404028352916020019161033d565b820191906000526020600020905b81548152906001019060200180831161032057829003601f168201915b50505050509080600301805461035290610d62565b80601f016020809104026020016040519081016040528092919081815260200182805461037e90610d62565b80156103cb5780601f106103a0576101008083540402835291602001916103cb565b820191906000526020600020905b8154815290600101906020018083116103ae57829003601f168201915b5050505050908060040154908060050154908060060154905087565b600081815260208181526040808320600781018054600181810183559186528486200180546001600160a01b031916331790556008820180549182018155855292842034930183905580549151929390926001600160a01b03929092169184156108fc0291859190818181858888f1935050505015801561046c573d6000803e3d6000fd5b5081816006015461047d9190610dac565b6006909101555050565b60015460009081526020819052604081204284116105005760405162461bcd60e51b815260206004820152602c60248201527f54686520646561646c696e652073686f756c642062652061206461746520696e60448201526b103a343290333aba3ab9329760a11b606482015260840160405180910390fd5b80546001600160a01b0319166001600160a01b038916178155600181016105278882610e14565b50600381016105368782610e14565b506004810185905560058101849055600060068201556002810161055a8482610e14565b506001805490600061056b83610ed4565b91905055506001805461057e9190610eed565b98975050505050505050565b6060600060015467ffffffffffffffff8111156105a9576105a9610a84565b60405190808252806020026020018201604052801561063257816020015b61061f60405180610120016040528060006001600160a01b0316815260200160608152602001606081526020016060815260200160008152602001600081526020016000815260200160608152602001606081525090565b8152602001906001900390816105c75790505b50905060005b60015481101561093157600081815260208181526040918290208251610120810190935280546001600160a01b031683526001810180549193928492908401919061068290610d62565b80601f01602080910402602001604051908101604052809291908181526020018280546106ae90610d62565b80156106fb5780601f106106d0576101008083540402835291602001916106fb565b820191906000526020600020905b8154815290600101906020018083116106de57829003601f168201915b5050505050815260200160028201805461071490610d62565b80601f016020809104026020016040519081016040528092919081815260200182805461074090610d62565b801561078d5780601f106107625761010080835404028352916020019161078d565b820191906000526020600020905b81548152906001019060200180831161077057829003601f168201915b505050505081526020016003820180546107a690610d62565b80601f01602080910402602001604051908101604052809291908181526020018280546107d290610d62565b801561081f5780601f106107f45761010080835404028352916020019161081f565b820191906000526020600020905b81548152906001019060200180831161080257829003601f168201915b505050505081526020016004820154815260200160058201548152602001600682015481526020016007820180548060200260200160405190810160405280929190818152602001828054801561089f57602002820191906000526020600020905b81546001600160a01b03168152600190910190602001808311610881575b50505050508152602001600882018054806020026020016040519081016040528092919081815260200182805480156108f757602002820191906000526020600020905b8154815260200190600101908083116108e3575b50505050508152505083838151811061091257610912610f00565b602002602001018190525050808061092990610ed4565b915050610638565b50919050565b60006020828403121561094957600080fd5b5035919050565b604080825283519082018190526000906020906060840190828701845b828110156109925781516001600160a01b03168452928401929084019060010161096d565b5050508381038285015284518082528583019183019060005b818110156109c7578351835292840192918401916001016109ab565b5090979650505050505050565b6000815180845260005b818110156109fa576020818501810151868301820152016109de565b506000602082860101526020601f19601f83011685010191505092915050565b6001600160a01b038816815260e060208201819052600090610a3e908301896109d4565b8281036040840152610a5081896109d4565b90508281036060840152610a6481886109d4565b6080840196909652505060a081019290925260c090910152949350505050565b634e487b7160e01b600052604160045260246000fd5b600082601f830112610aab57600080fd5b813567ffffffffffffffff80821115610ac657610ac6610a84565b604051601f8301601f19908116603f01168101908282118183101715610aee57610aee610a84565b81604052838152866020858801011115610b0757600080fd5b836020870160208301376000602085830101528094505050505092915050565b60008060008060008060c08789031215610b4057600080fd5b86356001600160a01b0381168114610b5757600080fd5b9550602087013567ffffffffffffffff80821115610b7457600080fd5b610b808a838b01610a9a565b96506040890135915080821115610b9657600080fd5b610ba28a838b01610a9a565b9550606089013594506080890135935060a0890135915080821115610bc657600080fd5b50610bd389828a01610a9a565b9150509295509295509295565b600081518084526020808501945080840160005b83811015610c195781516001600160a01b031687529582019590820190600101610bf4565b509495945050505050565b600081518084526020808501945080840160005b83811015610c1957815187529582019590820190600101610c38565b60006020808301818452808551808352604092508286019150828160051b87010184880160005b83811015610d5457888303603f19018552815180516001600160a01b0316845261012088820151818a870152610cb3828701826109d4565b9150508782015185820389870152610ccb82826109d4565b91505060608083015186830382880152610ce583826109d4565b92505050608080830151818701525060a080830151818701525060c080830151818701525060e08083015186830382880152610d218382610be0565b925050506101008083015192508582038187015250610d408183610c24565b968901969450505090860190600101610c7b565b509098975050505050505050565b600181811c90821680610d7657607f821691505b60208210810361093157634e487b7160e01b600052602260045260246000fd5b634e487b7160e01b600052601160045260246000fd5b80820180821115610dbf57610dbf610d96565b92915050565b601f821115610e0f57600081815260208120601f850160051c81016020861015610dec5750805b601f850160051c820191505b81811015610e0b57828155600101610df8565b5050505b505050565b815167ffffffffffffffff811115610e2e57610e2e610a84565b610e4281610e3c8454610d62565b84610dc5565b602080601f831160018114610e775760008415610e5f5750858301515b600019600386901b1c1916600185901b178555610e0b565b600085815260208120601f198616915b82811015610ea657888601518255948401946001909101908401610e87565b5085821015610ec45787850151600019600388901b60f8161c191681555b5050505050600190811b01905550565b600060018201610ee657610ee6610d96565b5060010190565b81810381811115610dbf57610dbf610d96565b634e487b7160e01b600052603260045260246000fdfea264697066735822122000e0d2ff62ee78a9806a2172b8c2f62d5b3c6046727649a4b4d8945258a5653164736f6c63430008120033",
  "linkReferences": {},
  "deployedLinkReferences": {}
}